:020000040800F2
:10000000005000205D6700087D65000889650008D4
:100010008F650008956500089B65000800000000DA
:10002000000000000000000000000000A1650008C2
:10003000AD65000800000000B9650008C56500084E
:10004000A5670008A5670008A5670008A567000860
:10005000A5670008A5670008A5670008A567000850
:10006000A5670008A5670008A5670008A567000840
:10007000A5670008A5670008A5670008A567000830
:10008000A5670008A5670008D1650008A5670008F6
:10009000A5670008A5670008A5670008A567000810
:1000A000A5670008A5670008A5670008A567000800
:1000B000E5650008A5670008A5670008A5670008B2
:1000C000A5670008A5670008A5670008A5670008E0
:1000D000A5670008A5670008A5670008A5670008D0
:1000E000A5670008A5670008A567000800000000D4
:1000F0000000000000000000000000000000000000
:0C01000000000000000000005FF808F1A3
:1001100010B5054C237833B9044B13B10448AFF341
:1001200000800123237010BD80000020000000002B
:100130002C8B000808B5034B1BB103490348AFF3F0
:10014000008008BD00000000840000202C8B000807
:1001500081F0004102E000BF83F0004330B54FEA78
:1001600041044FEA430594EA050F08BF90EA020FE5
:100170001FBF54EA000C55EA020C7FEA645C7FEA78
:10018000655C00F0E2804FEA5454D4EB5555B8BF9B
:100190006D420CDD2C4480EA020281EA030382EA0C
:1001A000000083EA010180EA020281EA0303362D9E
:1001B00088BF30BD11F0004F4FEA01314FF4801C71
:1001C0004CEA113102D0404261EB410113F0004F83
:1001D0004FEA03334CEA133302D0524263EB43033A
:1001E00094EA050F00F0A780A4F10104D5F1200ED8
:1001F0000DDB02FA0EFC22FA05F2801841F1000133
:1002000003FA0EF2801843FA05F359410EE0A5F106
:1002100020050EF1200E012A03FA0EFC28BF4CF037
:10022000020C43FA05F3C01851EBE37101F00045ED
:1002300007D54FF0000EDCF1000C7EEB00006EEBFA
:100240000101B1F5801F1BD3B1F5001F0CD3490884
:100250005FEA30004FEA3C0C04F101044FEA4452DB
:1002600012F5800F80F09A80BCF1004F08BF5FEA62
:10027000500C50F1000041EB045141EA050130BD42
:100280005FEA4C0C404141EB010111F4801FA4F1E5
:100290000104E9D191F0000F04BF01460020B1FA3A
:1002A00081F308BF2033A3F10B03B3F120020CDA72
:1002B0000C3208DD02F1140CC2F10C0201FA0CF050
:1002C00021FA02F10CE002F11402D8BFC2F1200CB5
:1002D00001FA02F120FA0CFCDCBF41EA0C0190406B
:1002E000E41AA2BF01EB0451294330BD6FEA0404B4
:1002F0001F3C1CDA0C340EDC04F11404C4F120029F
:1003000020FA04F001FA02F340EA030021FA04F3B0
:1003100045EA030130BDC4F10C04C4F1200220FA07
:1003200002F001FA04F340EA0300294630BD21FA45
:1003300004F0294630BD94F0000F83F4801306BF0B
:1003400081F480110134013D4EE77FEA645C18BFFF
:100350007FEA655C29D094EA050F08BF90EA020F96
:1003600005D054EA000C04BF1946104630BD91EA8E
:10037000030F1EBF0021002030BD5FEA545C05D191
:100380004000494128BF41F0004130BD14F58004D0
:100390003CBF01F5801130BD01F0004545F0FE4144
:1003A00041F470014FF0000030BD7FEA645C1ABF79
:1003B000194610467FEA655C1CBF0B46024650EAB0
:1003C000013406BF52EA033591EA030F41F40021DC
:1003D00030BD00BF90F0000F04BF0021704730B562
:1003E0004FF4806404F132044FF000054FF0000137
:1003F00050E700BF90F0000F04BF0021704730B5F8
:100400004FF4806404F1320410F0004548BF4042CC
:100410004FF000013EE700BF42004FEAE2014FEA21
:1004200031014FEA02701FBF12F07F4393F07F4FFC
:1004300081F06051704792F0000F14BF93F07F4F2E
:10044000704730B54FF4607401F0004521F0004171
:1004500020E700BF50EA010208BF704730B54FF0F7
:1004600000050AE050EA010208BF704730B511F0FC
:10047000004502D5404261EB41014FF4806404F134
:1004800032045FEA915C3FF4DCAE4FF003025FEAB6
:10049000DC0C18BF03325FEADC0C18BF033202EB3E
:1004A000DC02C2F1200300FA03FC20FA02F001FA98
:1004B00003FE40EA0E0021FA02F11444C1E600BF37
:1004C00070B54FF0FF0C4CF4E06C1CEA11541DBFEA
:1004D0001CEA135594EA0C0F95EA0C0F00F0DEF8B5
:1004E0002C4481EA030621EA4C5123EA4C5350EA9A
:1004F000013518BF52EA033541F4801143F48013EB
:1005000038D0A0FB02CE4FF00005E1FB02E506F07B
:100510000042E0FB03E54FF00006E1FB03569CF0D0
:10052000000F18BF4EF0010EA4F1FF04B6F5007FD6
:1005300064F5407404D25FEA4E0E6D4146EB060648
:1005400042EAC62141EA55514FEAC52040EA5E50D1
:100550004FEACE2EB4F1FD0C88BFBCF5E06F1ED87B
:10056000BEF1004F08BF5FEA500E50F1000041EBB2
:10057000045170BD06F0004646EA010140EA02005F
:1005800081EA0301B4EB5C04C2BFD4EB0C0541EA81
:10059000045170BD41F480114FF0000E013C00F396
:1005A000AB8014F1360FDEBF002001F0004170BDBA
:1005B000C4F10004203C35DA0C341BDC04F11404D3
:1005C000C4F1200500FA05F320FA04F001FA05F25F
:1005D00040EA020001F0004221F0004110EBD3702C
:1005E00021FA04F642EB06015EEA430E08BF20EA58
:1005F000D37070BDC4F10C04C4F1200500FA04F3FB
:1006000020FA05F001FA04F240EA020001F000418C
:1006100010EBD37041F100015EEA430E08BF20EAFF
:10062000D37070BDC4F1200500FA05F24EEA020E47
:1006300020FA04F301FA05F243EA020321FA04F076
:1006400001F0004121FA04F220EA020000EBD3702D
:100650005EEA430E08BF20EAD37070BD94F0000F2D
:100660000FD101F00046400041EB010111F4801F61
:1006700008BF013CF7D041EA060195F0000F18BF12
:10068000704703F00046520043EB030313F4801F4E
:1006900008BF013DF7D043EA0603704794EA0C0F08
:1006A0000CEA135518BF95EA0C0F0CD050EA41061E
:1006B00018BF52EA4306D1D181EA030101F000419B
:1006C0004FF0000070BD50EA410606BF10461946C3
:1006D00052EA430619D094EA0C0F02D150EA0136CF
:1006E00013D195EA0C0F05D152EA03361CBF104610
:1006F00019460AD181EA030101F0004141F0FE41AF
:1007000041F470014FF0000070BD41F0FE4141F432
:10071000780170BD70B54FF0FF0C4CF4E06C1CEA32
:1007200011541DBF1CEA135594EA0C0F95EA0C0FE7
:1007300000F0A7F8A4EB050481EA030E52EA0335A2
:100740004FEA013100F088804FEA03334FF08055C3
:1007500045EA131343EA12634FEA022245EA1115F0
:1007600045EA10654FEA00260EF000419D4208BFA1
:10077000964244F1FD0404F5407402D25B084FEA4E
:100780003202B61A65EB03055B084FEA32024FF4FA
:1007900080104FF4002CB6EB020E75EB030E22BF57
:1007A000B61A754640EA0C005B084FEA3202B6EB17
:1007B000020E75EB030E22BFB61A754640EA5C00C6
:1007C0005B084FEA3202B6EB020E75EB030E22BF56
:1007D000B61A754640EA9C005B084FEA3202B6EB57
:1007E000020E75EB030E22BFB61A754640EADC0016
:1007F00055EA060E18D04FEA051545EA16754FEA78
:1008000006164FEAC30343EA52734FEAC2025FEA95
:100810001C1CC0D111F4801F0BD141EA00014FF024
:1008200000004FF0004CB6E711F4801F04BF0143F5
:100830000020B4F1FD0C88BFBCF5E06F3FF6AFAE11
:10084000B5EB030C04BFB6EB020C5FEA500C50F1A1
:10085000000041EB045170BD0EF0004E4EEA113124
:1008600014EB5C04C2BFD4EB0C0541EA045170BD2B
:1008700041F480114FF0000E013C90E645EA060E6F
:100880008DE60CEA135594EA0C0F08BF95EA0C0F9D
:100890003FF43BAF94EA0C0F0AD150EA01347FF4E5
:1008A00034AF95EA0C0F7FF425AF104619462CE7BC
:1008B00095EA0C0F06D152EA03353FF4FDAE10461F
:1008C000194622E750EA410618BF52EA43067FF470
:1008D000C5AE50EA41047FF40DAF52EA43057FF400
:1008E000EBAE12E74FF0FF3C06E000BF4FF0010C0B
:1008F00002E000BF4FF0010C4DF804CD4FEA410C6F
:100900007FEA6C5C4FEA430C18BF7FEA6C5C1BD03B
:1009100001B050EA410C0CBF52EA430C91EA030FBC
:1009200002BF90EA020F0020704710F1000F91EA19
:10093000030F58BF994208BF90422CBFD8176FEAE7
:10094000E37040F0010070474FEA410C7FEA6C5CB5
:1009500002D150EA013C07D14FEA430C7FEA6C5CBC
:10096000D6D152EA033CD3D05DF8040B704700BFE8
:100970008446104662468C461946634600E000BF36
:1009800001B5FFF7B7FF002848BF10F1000F01BD08
:100990004DF808EDFFF7F4FF0CBF012000205DF8D3
:1009A00008FB00BF4DF808EDFFF7EAFF34BF012058
:1009B00000205DF808FB00BF4DF808EDFFF7E0FFF1
:1009C00094BF012000205DF808FB00BF4DF808ED42
:1009D000FFF7CEFF94BF012000205DF808FB00BFA9
:1009E0004DF808EDFFF7C4FF34BF012000205DF88B
:1009F00008FB00BF4FEA410C7FEA6C5C02D150EA71
:100A0000013C0AD14FEA430C7FEA6C5C02D152EA06
:100A1000033C02D14FF0000070474FF001007047D7
:100A20004FEA410212F5001215D211D56FF4787316
:100A3000B3EB625212D94FEAC12343F0004343EAB9
:100A4000505311F0004F23FA02F018BF4042704794
:100A50004FF00000704750EA013005D111F000401E
:100A600008BF6FF0004070474FF00000704700BFB4
:100A70004A0011D212F5001211D20DD56FF478731D
:100A8000B3EB62520ED44FEAC12343F0004343EA72
:100A9000505323FA02F070474FF00000704750EABD
:100AA000013002D14FF0FF3070474FF00000704727
:100AB0004FEA4102B2F1E04324BFB3F5001CDCF180
:100AC000FE5C0DD901F0004C4FEAC0024CEA5070B8
:100AD000B2F1004F40EB830008BF20F001007047E7
:100AE00011F0804F21D113F13872BCBF01F00040EA
:100AF000704741F480114FEA5252C2F11802C2F11C
:100B0000200C10FA0CF320FA02F018BF40F001009C
:100B10004FEAC1234FEAD32303FA0CFC40EA0C004E
:100B200023FA02F34FEA4303CCE77FEA625307D18B
:100B300050EA01331EBF4FF0FE4040F440007047C2
:100B400001F0004040F0FE4040F40000704700BF5C
:100B500080F0004002E000BF81F0004142001FBF72
:100B60005FEA410392EA030F7FEA226C7FEA236C7B
:100B70006AD04FEA1262D2EB1363C1BFD218414070
:100B800048404140B8BF5B42192B88BF704710F006
:100B9000004F40F4000020F07F4018BF404211F0A9
:100BA000004F41F4000121F07F4118BF494292EA11
:100BB000030F3FD0A2F1010241FA03FC10EB0C003D
:100BC000C3F1200301FA03F100F0004302D54942CA
:100BD00060EB4000B0F5000F13D3B0F1807F06D377
:100BE00040084FEA310102F10102FE2A51D2B1F16F
:100BF000004F40EBC25008BF20F0010040EA030064
:100C00007047490040EB000010F4000FA2F1010210
:100C1000EDD1B0FA80FCACF1080CB2EB0C0200FA9A
:100C20000CF0AABF00EBC25052421843BCBFD040E8
:100C30001843704792F0000F81F4000106BF80F462
:100C400000000132013BB5E74FEA41037FEA226C25
:100C500018BF7FEA236C21D092EA030F04D092F0F0
:100C6000000F08BF0846704790EA010F1CBF002024
:100C7000704712F07F4F04D1400028BF40F0004081
:100C8000704712F100723CBF00F50000704700F0A1
:100C9000004343F0FE4040F4000070477FEA2262C8
:100CA00016BF08467FEA23630146420206BF5FEA99
:100CB000412390EA010F40F4800070474FF0000399
:100CC00004E000BF10F0004348BF40425FEA000C60
:100CD00008BF704743F0964301464FF000001CE008
:100CE00050EA010208BF70474FF000030AE000BF5E
:100CF00050EA010208BF704711F0004302D540429C
:100D000061EB41015FEA010C02BF8446014600200D
:100D100043F0B64308BFA3F18053A3F50003BCFA28
:100D20008CF2083AA3EBC25310DB01FA02FC6344D5
:100D300000FA02FCC2F12002BCF1004F20FA02F2DC
:100D400043EB020008BF20F00100704702F12002CF
:100D500001FA02FCC2F1200250EA4C0021FA02F230
:100D600043EB020008BF20EADC7070474FF0FF0C35
:100D70001CEAD0521EBF1CEAD15392EA0C0F93EA30
:100D80000C0F6FD01A4480EA010C400218BF5FEAD2
:100D900041211ED04FF0006343EA501043EA511145
:100DA000A0FB01310CF00040B1F5000F3EBF49003F
:100DB00041EAD3715B0040EA010062F17F02FD2A43
:100DC0001DD8B3F1004F40EBC25008BF20F0010026
:100DD000704790F0000F0CF0004C08BF49024CEA3D
:100DE000502040EA51207F3AC2BFD2F1FF0340EACF
:100DF000C250704740F400004FF00003013A5DDC40
:100E000012F1190FDCBF00F000407047C2F1000280
:100E1000410021FA02F1C2F1200200FA02FC5FEA6D
:100E2000310040F1000053EA4C0308BF20EADC70B7
:100E3000704792F0000F00F0004C02BF400010F429
:100E4000000F013AF9D040EA0C0093F0000F01F0D6
:100E5000004C02BF490011F4000F013BF9D041EAF8
:100E60000C018FE70CEAD15392EA0C0F18BF93EAFA
:100E70000C0F0AD030F0004C18BF31F0004CD8D124
:100E800080EA010000F00040704790F0000F17BFAB
:100E900090F0004F084691F0000F91F0004F14D0F1
:100EA00092EA0C0F01D142020FD193EA0C0F03D149
:100EB0004B0218BF084608D180EA010000F000404C
:100EC00040F0FE4040F40000704740F0FE4040F427
:100ED000400070474FF0FF0C1CEAD0521EBF1CEAC6
:100EE000D15392EA0C0F93EA0C0F69D0A2EB0302E4
:100EF00080EA010C49024FEA402037D04FF080537E
:100F000043EA111143EA10130CF000408B4238BF42
:100F10005B0042F17D024FF4000C8B4224BF5B1A50
:100F200040EA0C00B3EB510F24BFA3EB510340EA9E
:100F30005C00B3EB910F24BFA3EB910340EA9C004C
:100F4000B3EBD10F24BFA3EBD10340EADC001B01BC
:100F500018BF5FEA1C1CE0D1FD2A3FF650AF8B4260
:100F600040EBC25008BF20F0010070470CF0004C6D
:100F70004CEA50207F32C2BFD2F1FF0340EAC25098
:100F8000704740F400004FF00003013A37E792F059
:100F9000000F00F0004C02BF400010F4000F013AB7
:100FA000F9D040EA0C0093F0000F01F0004C02BFB2
:100FB000490011F4000F013BF9D041EA0C0195E71B
:100FC0000CEAD15392EA0C0F08D142027FF47DAFB4
:100FD00093EA0C0F7FF470AF084676E793EA0C0FA4
:100FE00004D14B023FF44CAF08466EE730F0004CA2
:100FF00018BF31F0004CCAD130F000427FF45CAF32
:1010000031F000437FF43CAF5FE700BF4FEA40029E
:10101000B2F1FE4F0FD34FF09E03B3EB12620DD926
:101020004FEA002343F0004310F0004F23FA02F090
:1010300018BF404270474FF00000704712F1610F37
:1010400001D1420205D110F0004008BF6FF000400E
:1010500070474FF0000070477BB972B90029BEBFDE
:1010600000204FF0004106E008BF00281CBF6FF0D1
:1010700000414FF0FF3000F0ADB9ADF1080C6DE963
:1010800004CE002909DB002B1ADB00F035F8DDF86F
:1010900004E0DDE9022304B07047404261EB410106
:1010A000002B1BDB00F028F8DDF804E0DDE902236B
:1010B00004B0404261EB4101524263EB430370478D
:1010C000524263EB430300F017F8DDF804E0DDE97A
:1010D000022304B0404261EB41017047524263EB8E
:1010E000430300F009F8DDF804E0DDE9022304B071
:1010F000524263EB430370472DE9F0478C460E469E
:101100000446089D002B50D18A4217466CD9B2FA8A
:1011100082FEBEF1000F0BD0CEF1200C01FA0EF6CC
:1011200020FA0CFC02FA0EF74CEA060C00FA0EF458
:101130003A0CBCFBF2F9BBB202FB19CC09FB03FA77
:101140004FEA144848EA0C46B2450AD9F61909F1A3
:10115000FF3180F02581B24540F22281A9F10209D8
:101160003E44A6EB0A06B6FBF2F002FB106600FB5B
:1011700003F3A4B244EA0644A34209D9E41900F1F6
:10118000FF3280F00B81A34240F2088102383C44D8
:101190000021E41A40EA0940002D62D0002324FA1D
:1011A0000EF42C606B60BDE8F0878B4207D9002DF0
:1011B00055D0002185E841000846BDE8F087B3FA24
:1011C00083F1002940F08F80B34202D3824200F2C3
:1011D000FC80841A66EB03060120B446002D40D043
:1011E00085E81010BDE8F08712B90127B7FBF2F7C8
:1011F000B7FA87FEBEF1000F35D10121F61B4FEA89
:10120000174C1FFA87F8B6FBFCF20CFB126608FBC2
:1012100002F0230C43EA0646B04207D9F61902F160
:10122000FF3302D2B04200F2D2801A46361AB6FB21
:10123000FCF00CFB106608FB00F8A3B243EA06447E
:10124000A04507D9E41900F1FF3302D2A04500F20E
:10125000B9801846A4EB080440EA02409CE72946FE
:101260002846BDE8F08707FA0EF7CEF1200326FAEC
:1012700003F24FEA174CB2FBFCF11FFA87F80CFBA4
:10128000112206FA0EF620FA03F301FB08F93343A4
:101290001E0C46EA0246B14500FA0EF409D9F619C9
:1012A00001F1FF3280F08C80B14540F28980023933
:1012B0003E44A6EB0906B6FBFCF00CFB106200FBFB
:1012C00008F99EB246EA0246B14507D9F61900F17F
:1012D000FF3371D2B1456FD902383E44A6EB0906FF
:1012E00040EA01418FE7C1F1200722FA07F88B405D
:1012F00048EA030326FA07F44FEA134EB4FBFEF95B
:101300001FFA83FC0EFB19448E4020FA07F809FBF4
:101310000CFA48EA06084FEA184646EA0444A24591
:1013200002FA01F200FA01F608D9E41809F1FF30D7
:1013300044D2A24542D9A9F102091C44A4EB0A04F3
:10134000B4FBFEF00EFB104400FB0CFC1FFA88F807
:1013500048EA0444A44507D9E41800F1FF3E29D225
:10136000A44527D902381C4440EA0940A0FB028961
:10137000A4EB0C0CCC45C246CE4615D312D055B1C9
:10138000B6EB0A036CEB0E0606FA07F7CB401F43D9
:10139000CE402F606E600021BDE8F0871046F7E672
:1013A0008946DEE64645EAD2B8EB020A69EB030E4F
:1013B0000138E4E77046D7E718468FE78146BDE776
:1013C000114676E702383C4444E7084606E7023A0D
:1013D0003E442BE7704700BF80B500AF084A084B7A
:1013E0001B6843F010031360032000F0EFFF0020A0
:1013F00000F008F805F090F80023184680BD00BF03
:101400000020024080B582B000AF7860124B1A68AD
:10141000124B1B7819464FF47A73B3FBF1F3B2FB0E
:10142000F3F3184601F007F80346002B01D001231F
:101430000EE07B680F2B0AD8002279684FF0FF304E
:1014400000F0CFFF064A7B681360002300E0012311
:1014500018460837BD4680BD140000200400002057
:101460000000002080B400AF054B1B781A46054BE6
:101470001B681344034A136000BFBD4680BC70471D
:1014800004000020B404002080B400AF024B1B68AD
:101490001846BD4680BC7047B404002080B584B0B7
:1014A00000AF7860FFF7F0FFB8607B68FB60FB6817
:1014B000B3F1FF3F05D0094B1B781A46FB68134474
:1014C000FB6000BFFFF7E0FF0246BB68D21AFB6873
:1014D0009A42F7D300BF1037BD4680BD04000020FC
:1014E00080B586B000AF78600023FB7500233B61B8
:1014F0000023BB600023FB607B68002B01D101232C
:10150000BEE07B689B68002B7B689B6A002B09D13F
:101510007B680022DA627B68002283F824207868E6
:1015200004F03AFA786800F0D3FA0346FB757B685A
:101530009B6A03F01003002B40F09980FB7D002B89
:1015400040F095807B689B6A23F4885323F0020364
:1015500043F002027B689A627B685A687B68DB69A9
:101560001A437B68DB685B001343BA681343BB60B4
:101570007B689B68B3F5807F03D07B689B68012BF9
:1015800002D14FF4807300E000233A6913433B61BA
:101590007B685B69012B19D17B68DB68002B09D163
:1015A0007B689B69013B5A033B69134343F4006327
:1015B0003B610BE07B689B6A43F020027B689A6288
:1015C0007B68DB6A43F001027B68DA627B681B6838
:1015D0007A681268526822F469413A690A435A608B
:1015E0007B681A687B681B689968274B0B40B96851
:1015F0000B4393607B689B68B3F5807F03D07B6867
:101600009B68012B04D17B681B69013B1B05FB60B8
:101610007B681B687A681268D26A22F47001FA68E3
:101620000A43DA627B681B689A68184B1340BA68F1
:1016300093420BD17B680022DA627B689B6A23F0BD
:10164000030343F001027B689A6218E07B689B6A9F
:1016500023F0120343F010027B689A627B68DB6A16
:1016600043F001027B68DA620123FB7507E07B68C7
:101670009B6A43F010027B689A620123FB75FB7D35
:1016800018461837BD4680BDFDF7E1FFFE0E1FFF6F
:1016900080B582B000AF78607B681B685B6803F040
:1016A0002003202B40D17B681B681B6803F00203DA
:1016B000022B39D17B689B6A03F01003002B05D104
:1016C0007B689B6A43F400727B689A627B681B6844
:1016D0009B6803F46023B3F5602F1DD17B68DB6842
:1016E000002B19D17B681B687A681268526822F057
:1016F00020025A607B689B6A23F480727B689A623E
:101700007B689B6A03F48053002B05D17B689B6A3E
:1017100043F001027B689A62786800F07CF87B688D
:101720001B686FF012021A607B681B685B6803F02D
:101730008003802B4FD17B681B681B6803F0040378
:10174000042B48D17B689B6A03F01003002B05D162
:101750007B689B6A43F400527B689A627B681B68D3
:101760009B6803F4E043B3F5E04F12D07B681B683D
:101770005B6803F48063002B25D17B681B689B6842
:1017800003F46023B3F5602F1DD17B68DB68002B69
:1017900019D17B681B687A681268526822F080024F
:1017A0005A607B689B6A23F480527B689A627B68EC
:1017B0009B6A03F48073002B05D17B689B6A43F01E
:1017C00001027B689A62786800F09BFB7B681B686B
:1017D0006FF00C021A607B681B685B6803F04003C3
:1017E000402B14D17B681B681B6803F00103012B9D
:1017F0000DD17B689B6A43F480327B689A6278687B
:1018000000F012F87B681B686FF001021A6000BFDD
:101810000837BD4680BD80B483B000AF786000BF9C
:101820000C37BD4680BC704780B483B000AF786091
:1018300000BF0C37BD4680BC7047000090B484B038
:1018400000AF786039600023FB730023BB607B68C6
:1018500093F82430012B01D10223DCE07B680122C4
:1018600083F824203B685B68062B1CD87B681968CA
:101870007B681B68586B3B685A6813469B0013448F
:10188000053B1F2202FA03F3DB4318403B681C6848
:101890003B685A6813469B001344053B04FA03F364
:1018A00003434B633CE03B685B680C2B1CD87B68B4
:1018B00019687B681B68186B3B685A6813469B0065
:1018C0001344233B1F2202FA03F3DB4318403B6817
:1018D0001C683B685A6813469B001344233B04FA78
:1018E00003F303430B631BE07B6819687B681B6889
:1018F000D86A3B685A6813469B001344413B1F2239
:1019000002FA03F3DB4318403B681C683B685A68E3
:1019100013469B001344413B04FA03F30343CB6299
:101920003B681B68092B1CD97B6819687B681B689E
:10193000D8683B681A6813465B0013441E3B0722B5
:1019400002FA03F3DB4318403B689C683B681A6863
:1019500013465B0013441E3B04FA03F30343CB60BE
:1019600019E07B6819687B681B6818693B681A680E
:1019700013465B001344072202FA03F3DB431840CB
:101980003B689C683B681A6813465B00134404FA82
:1019900003F303430B613B681B68102B03D03B68C8
:1019A0001B68112B32D17B681B681D4A934225D1DD
:1019B0007B681B689B6803F40003002B26D17B68BF
:1019C0001B687A681268926842F400029A603B6869
:1019D0001B68102B1AD1134B1B68134AA2FB03235D
:1019E0009A0C13469B0013445B00BB6002E0BB688B
:1019F000013BBB60BB68002BF9D107E07B689B6AA9
:101A000043F020027B689A620123FB737B6800220B
:101A100083F82420FB7B18461037BD4690BC7047E6
:101A2000002401401400002083DE1B4380B584B0F5
:101A300000AF78600023FB600023BB607B681B68FD
:101A40009B6803F00103012B39D07B681B687A681F
:101A50001268926842F001029A601B4B1B681B4A95
:101A6000A2FB03239B0CBB6002E0BB68013BBB6095
:101A7000BB68002BF9D1FFF707FDF86018E0FFF70E
:101A800003FD0246FB68D31A022B11D97B689B6ABF
:101A900043F010027B689A627B68DB6A43F00102C4
:101AA0007B68DA627B68002283F82420012307E048
:101AB0007B681B689B6803F00103012BDFD10023C7
:101AC00018461037BD4680BD1400002083DE1B433E
:101AD00080B584B000AF78600023FB607B681B6832
:101AE0009B6803F00103012B27D17B681B687A6890
:101AF0001268926822F001029A60FFF7C5FCF86054
:101B000014E0FFF7C1FC0246FB68D31A022B0DD983
:101B10007B689B6A43F010027B689A627B68DB6A91
:101B200043F001027B68DA62012307E07B681B68EF
:101B30009B6803F00103012BE3D000231846103704
:101B4000BD4680BD80B584B000AF78600023FB73D4
:101B50007B6893F82430012B01D1022370E07B686D
:101B6000012283F824207868FFF760FF0346FB73A7
:101B7000FB7B002B5FD17B689B6A23F4405323F0EF
:101B8000010343F480527B689A627B681B682E4A8B
:101B9000934205D12D4B5B6803F47023002B06D1D3
:101BA0007B689B6A23F480127B689A6205E07B68FD
:101BB0009B6A43F480127B689A627B689B6A03F499
:101BC0008073002B02D17B680022DA627B680022DE
:101BD00083F824207B681B686FF004021A607B681E
:101BE0001B685B6803F48063002B28D17B681B684B
:101BF0009B6803F4E043B3F5E04F13D17B681B68A7
:101C0000114A934205D1114B5B6803F47023002BFA
:101C100008D17B681B687A681268926842F40212E5
:101C20009A600CE07B681B687A681268926842F4DC
:101C300000429A6003E07B68002283F82420FB7B4B
:101C400018461037BD4680BD0028014000240140E1
:101C500080B584B000AF78600023FB737B6893F895
:101C60002430012B01D1022330E07B68012283F86C
:101C700024207B689B6A03F48073002B19D17B6856
:101C80001B685B6803F48063002B12D17868FFF750
:101C90001FFF0346FB73FB7B002B12D17B689B6A03
:101CA00023F4885323F0010343F001027B689A6216
:101CB00007E07B689B6A43F020027B689A620123FD
:101CC000FB737B68002283F82420FB7B18461037C7
:101CD000BD4680BD90B587B000AF78603960002305
:101CE000FB6000237B61FFF7CFFB38617B681B68DB
:101CF0009B6B03F44013002B23D11AE03B68B3F134
:101D0000FF3F16D03B68002B07D0FFF7BDFB024614
:101D10003B69D21A3B689A420BD97B689B6A43F0B5
:101D200004027B689A627B68002283F824200323E4
:101D3000ADE07B681B681B6803F00403002BDDD05B
:101D40006CE0554B1C68022002F0FEFB0346B4FB1E
:101D5000F3F27B681B681969504B0B40002B18D1BC
:101D60007B681B68D9684E4B0B40002B11D17B68F8
:101D70001B6819694B4B0B40002B08D17B681B6813
:101D8000D968494B0B40002B01D1142320E02923B3
:101D90001EE07B681B681969424B0B40002B06D183
:101DA0007B681B68D968404B0B40002B0DD07B68CB
:101DB0001B6819693D4B0B40002B08D17B681B68E1
:101DC000D9683A4B0B40002B01D1542300E0FC238F
:101DD00003FB02F37B611DE03B68B3F1FF3F16D0CC
:101DE0003B68002B07D0FFF74FFB02463B69D21A36
:101DF0003B689A420BD97B689B6A43F004027B687C
:101E00009A627B68002283F8242003233FE0FB686A
:101E10000133FB60FA687B699A42DDD37B681B68FB
:101E20006FF00E021A607B689B6A43F400527B6875
:101E30009A627B681B689B6803F4E043B3F5E04F4C
:101E400012D07B681B685B6803F48063002B1DD194
:101E50007B681B689B6803F46023B3F5602F15D182
:101E60007B68DB68002B11D17B689B6A23F480526E
:101E70007B689A627B689B6A03F48073002B05D1B0
:101E80007B689B6A43F001027B689A6200231846D4
:101E90001C37BD4690BD00BF140000202449922489
:101EA0002449920092244912922449004992240024
:101EB00080B485B000AF786039600023FB603B6878
:101EC000032B09D0042B02D0022B0AD00EE07B6832
:101ED0001B689B6CFB600EE07B681B685B6CFB60A7
:101EE00009E07B681B681B6CFB6004E07B681B6877
:101EF000DB6BFB6000BFFB6818461437BD4680BC37
:101F0000704780B483B000AF786000BF0C37BD4627
:101F100080BC7047B0B485B000AF786039600023F2
:101F2000FB730023BB607B6893F82430012B01D145
:101F3000022379E17B68012283F824207B689B6877
:101F4000002B19D13B685B68012B0CD17B681A68A8
:101F50007B681B689B6B9B0D9B0539680968C903EF
:101F60000B4393634EE07B689B6A43F020027B68DF
:101F70009A620123FB7345E03B685A683B681B6922
:101F80009A4229D87B6819687B681B68986B3B6804
:101F90005A683B681B69D21A13469B0013440F33DF
:101FA0001F2202FA03F343F44013DB4318403B685B
:101FB0001B69013B1C053B681D683B685A683B6810
:101FC0001B69D21A13469B0013440F3305FA03F31F
:101FD000234303438B6315E07B6819687B681B68A8
:101FE000986B3B685A683B681B69D21A13469B0082
:101FF00013440F331F2202FA03F343F44013DB436D
:1020000003408B637B681B689B6803F00103012B13
:102010000CD07B681A687B681B689B6823F4E043DC
:1020200023F001033968C9690B4393603B689B69DE
:10203000012B15D13B68DB69B3F5E04F08D17B6814
:102040001B687A681268526842F480625A6007E03E
:102050007B689B6A43F020027B689A620123FB73D2
:102060003B685B69012B14D13B689B69002B08D14D
:102070007B681B687A681268526842F480525A6022
:1020800007E07B689B6A43F020027B689A62012329
:10209000FB733B681B68092B1CD97B6819687B683C
:1020A0001B68D8683B681A6813465B0013441E3BE4
:1020B000072202FA03F3DB4318403B689C683B6845
:1020C0001A6813465B0013441E3B04FA03F30343F0
:1020D000CB6019E07B6819687B681B6818693B68EE
:1020E0001A6813465B001344072202FA03F3DB432A
:1020F00018403B689C683B681A6813465B001344B1
:1021000004FA03F303430B613B681B68102B03D0F5
:102110003B681B68112B07D17B681B687A681268C3
:10212000926842F400029A603B685B68022B11D00F
:10213000032B1DD0012B29D17B681A687B681B6893
:102140005B6923F47F6323F00F033968C9680B438D
:10215000536129E07B681A687B681B689B6923F4DC
:102160007F6323F00F033968C9680B4393611BE059
:102170007B681A687B681B68DB6923F47F6323F044
:102180000F033968C9680B43D3610DE07B681A6897
:102190007B681B681B6A23F47F6323F00F03396895
:1021A000C9680B43136200BF3B681B68102B03D048
:1021B0003B681B68112B32D17B681B681D4A934218
:1021C00025D17B681B689B6803F40003002B26D194
:1021D0007B681B687A681268926842F400029A6011
:1021E0003B681B68102B1AD1134B1B68134AA2FBC8
:1021F00003239A0C13469B0013445B00BB6002E070
:10220000BB68013BBB60BB68002BF9D107E07B6872
:102210009B6A43F020027B689A620123FB737B6810
:10222000002283F82420FB7B18461437BD46B0BC3F
:10223000704700BF002401401400002083DE1B43D0
:1022400080B485B000AF78607B6803F00703FB6063
:102250000C4BDB68BB60BA684FF6FF031340BB60F2
:10226000FB681A02BB68134343F0BF6343F40033B7
:10227000BB60044ABB68D36000BF1437BD4680BC56
:10228000704700BF00ED00E080B400AF044BDB6896
:102290001B0A03F007031846BD4680BC704700BF09
:1022A00000ED00E080B483B000AF0346FB71084945
:1022B00097F907305B09FA7902F01F02012000FA52
:1022C00002F241F8232000BF0C37BD4680BC7047A6
:1022D00000E100E080B483B000AF03463960FB71D9
:1022E00097F90730002B0BDA0D49FB7903F00F0348
:1022F000043B3A68D2B21201D2B20B441A7609E01A
:10230000084997F907303A68D2B21201D2B20B44A9
:1023100083F8002300BF0C37BD4680BC704700BF68
:1023200000ED00E000E100E080B489B000AFF860AB
:10233000B9607A60FB6803F00703FB61FB69C3F1D6
:102340000703042B28BF0423BB61FB690433062B5E
:1023500002D9FB69033B00E000237B610122BB69DA
:1023600002FA03F35A1EBB681A407B699A400121A6
:102370007B6901FA03F3591E7B680B40134318462F
:102380002437BD4680BC704780B582B000AF78600E
:102390007B68013BB3F1807F01D301230FE00A4A40
:1023A0007B68013B53600F214FF0FF30FFF792FF36
:1023B000054B00229A60044B07221A60002318463E
:1023C0000837BD4680BD00BF10E000E080B582B098
:1023D00000AF78607868FFF733FF00BF0837BD466D
:1023E00080BD80B586B000AF0346B9607A60FB73EC
:1023F00000237B61FFF748FF78617A68B9687869E4
:10240000FFF792FF024697F90F3011461846FFF783
:1024100061FF00BF1837BD4680BD80B582B000AFF8
:102420000346FB7197F907301846FFF73BFF00BFE3
:102430000837BD4680BD80B582B000AF786078684F
:10244000FFF7A2FF034618460837BD4680BD0000CF
:1024500080B48BB000AF786039600023FB6100234B
:10246000BB6100237B6100233B6200233B610023AF
:102470007B6227E101227B6A02FA03F3FB613B687E
:102480001A68FB691340BB61BA69FB699A4240F064
:1024900016813B685B68122B34D0122B0DD8022BAF
:1024A0002BD0022B04D8002B31D0012B1CD048E0BC
:1024B000032B43D0112B1BD043E0874A934226D0F5
:1024C000854A934206D8854A934220D0844A934253
:1024D0001DD036E0834A934219D0834A934216D0E6
:1024E000824A934213D02CE03B68DB683B6228E0D1
:1024F0003B68DB6804333B6223E03B68DB680833FE
:102500003B621EE03B68DB680C333B6219E03B68D2
:102510009B68002B02D104233B6212E03B689B685E
:10252000012B05D108233B627B68FA691A6108E038
:1025300008233B627B68FA695A6102E000233B6230
:1025400000BFBB69FF2B01D87B6801E07B680433C7
:10255000FB60BB69FF2B02D87B6A9B0002E07B6AB1
:10256000083B9B003B61FB681A680F213B6901FA3D
:1025700003F3DB431A40396A3B6901FA03F31A4358
:10258000FB681A603B685B6803F08053002B00F027
:102590009680574A564B9B6943F001039361544B15
:1025A0009B6903F00103BB60BB68524A7B6A9B08CE
:1025B000023352F823307B617B6A03F003039B00F4
:1025C0000F2202FA03F3DB437A6913407B617B68D5
:1025D000494A934213D07B68484A93420DD07B68A6
:1025E000474A934207D07B68464A934201D103236E
:1025F00006E0042304E0022302E0012300E00023BC
:102600007A6A02F00302920093407A6913437B6175
:1026100038497B6A9B0802337A6941F823203B687A
:102620005B6803F48033002B06D03749364B1A68B9
:10263000BB6913430B6006E03349334B1A68BB692F
:10264000DB4313400B603B685B6803F40033002BF3
:1026500006D02D492C4B5A68BB6913434B6006E0EA
:102660002949294B5A68BB69DB4313404B603B68DF
:102670005B6803F48013002B06D02349224B9A6831
:10268000BB6913438B6006E01F491F4B9A68BB6907
:10269000DB4313408B603B685B6803F40013002B43
:1026A00006D01949184BDA68BB691343CB6006E0C2
:1026B0001549154BDA68BB69DB431340CB607B6A75
:1026C00001337B627B6A0F2B7FF6D4AE00BF2C37C1
:1026D000BD4680BC704700BF0000211000001110F3
:1026E0000000121000003110000032100000221013
:1026F000001002400000014000080140000C0140B1
:1027000000100140001401400004014080B483B077
:1027100000AF78600B467B8013467B707B78002B84
:1027200003D07A887B681A6103E07B881A047B688F
:102730001A6100BF0C37BD4680BC704780B584B0BD
:1027400000AF78600023FB600023BB607B68002B38
:1027500001D10123E7E07B6893F83D30DBB2002B29
:1027600006D17B68002283F83C20786803F0E2F908
:102770007B68242283F83D207B681B687A68126896
:10278000126822F001021A6001F0E2FDB8607B6875
:102790005B68674A934207D8BB68664A934294BF16
:1027A00001230023DBB206E0BB68634A934294BF77
:1027B00001230023DBB2002B01D00123B3E0BB686F
:1027C0005E4AA2FB03239B0CFB607B681B68FA68D4
:1027D0005A607B681A687B685B6855498B4202D8EF
:1027E000FB68013309E0FB684FF4967101FB03F3CA
:1027F0005349A1FB03139B09013313627B681968DA
:102800007B685B684A4A93420DD8BB685A1E7B6856
:102810005B685B00B2FBF3F30133C3F30B03042BE0
:1028200038BF04234FE07B689B68002B11D1BB6845
:10283000581E7B685A6813465B001344B0FBF3F3E1
:102840000133C3F30B03002B0CBF01230023DBB2C6
:1028500012E0BB68581E7B685A6813469B001344FD
:102860009A001344B0FBF3F30133C3F30B03002BC3
:102870000CBF01230023DBB2002B01D0012322E097
:102880007B689B68002B0ED1BB68581E7B685A681A
:1028900013465B001344B0FBF3F30133C3F30B03A4
:1028A00043F400430FE0BB68581E7B685A68134628
:1028B0009B0013449A001344B0FBF3F30133C3F3BA
:1028C0000B0343F44043CB617B681B687A68D16992
:1028D0007A68126A0A431A607B681B687A68116911
:1028E0007A68D2680A439A607B681B687A68516983
:1028F0007A6892690A43DA607B681B687A681268B2
:10290000126842F001021A607B6800221A647B6838
:10291000202283F83D207B6800221A637B68002216
:1029200083F83E20002318461037BD4680BD00BF07
:10293000A08601007F841E00FF083D0083DE1B434C
:10294000D34D621080B588B002AFF8607A601A4645
:102950000B467B8113463B8100237B61FEF794FD90
:102960007861FB6893F83D30DBB2202B40F0EE80BD
:102970007B690093192301227749F86800F062FF10
:102980000346002B01D00223E1E0FB6893F83C30C2
:10299000012B01D10223DAE0FB68012283F83C20FD
:1029A000FB681B681B6803F00103012B07D0FB6861
:1029B0001B68FA681268126842F001021A60FB682C
:1029C0001B68FA681268126822F400621A60FB68D9
:1029D000212283F83D20FB68102283F83E20FB680B
:1029E00000221A64FB687A685A62FB683A895A8541
:1029F000FB685A4ADA62FB685B8D9AB2FB681A85FB
:102A000079897B693A6AF86800F026FD0346002B55
:102A10000FD0FB681B6C042B05D1FB68002283F8E8
:102A20003C20012393E0FB68002283F83C20032331
:102A30008DE000233B61FB681B685B693B61FB68C1
:102A40001B689B693B613B6966E07A69396AF86893
:102A500000F0B7FF0346002B0FD0FB681B6C042B64
:102A600009D1FB681B68FA681268126842F40072A8
:102A70001A6001236BE0032369E0FB681A68FB68B6
:102A80005B6A581CF96848621B781361FB685B8DB0
:102A90009BB2013B9AB2FB685A85FB681B8D013BD8
:102AA0009AB2FB681A85FB681B685B6903F0040334
:102AB000042B19D1FB681B8D002B15D0FB681A68FD
:102AC000FB685B6A581CF96848621B781361FB68F5
:102AD0005B8D9BB2013B9AB2FB685A85FB681B8DEC
:102AE000013B9AB2FB681A857A69396AF86800F086
:102AF000A5FF0346002B0FD0FB681B6C042B09D1EC
:102B0000FB681B68FA681268126842F400721A6067
:102B100001231CE003231AE0FB681B8D002B94D1DA
:102B2000FB681B68FA681268126842F400721A6047
:102B3000FB68202283F83D20FB68002283F83E20BA
:102B4000FB68002283F83C20002300E002231846A3
:102B50001837BD4680BD00BF020010000000FFFF17
:102B600080B588B002AFF860084611461A460346A1
:102B70007B810B463B811346FB8000237B61FEF784
:102B800083FC7861FB6893F83D30DBB2202B40F08A
:102B9000E7807B690093192301227449F86800F0EB
:102BA00051FE0346002B01D00223DAE0FB6893F8C4
:102BB0003C30012B01D10223D3E0FB68012283F8D2
:102BC0003C20FB681B681B6803F00103012B07D046
:102BD000FB681B68FA681268126842F001021A600A
:102BE000FB681B68FA681268126822F400621A60B7
:102BF000FB68212283F83D20FB68402283F83E20B9
:102C0000FB6800221A64FB683A6A5A62FB68BA8C55
:102C10005A85FB68564ADA62FB685B8D9AB2FB689C
:102C20001A85F8883A8979897B690193BB6A009390
:102C30000346F86800F092FC0346002B5ED0FB6868
:102C40001B6C042B05D1FB68002283F83C20012378
:102C500087E0FB68002283F83C20032381E07A6947
:102C6000B96AF86800F0ADFE0346002B0FD0FB6890
:102C70001B6C042B09D1FB681B68FA681268126888
:102C800042F400721A6001236BE0032369E0FB68E1
:102C90001A68FB685B6A581CF96848621B78136104
:102CA000FB681B8D013B9AB2FB681A85FB685B8D44
:102CB0009BB2013B9AB2FB685A85FB681B685B6953
:102CC00003F00403042B19D1FB681B8D002B15D0D6
:102CD000FB681A68FB685B6A581CF96848621B78D5
:102CE0001361FB681B8D013B9AB2FB681A85FB6878
:102CF0005B8D9BB2013B9AB2FB685A85FB681B8DCA
:102D0000002BACD17A69B96AF86800F097FE0346E7
:102D1000002B0FD0FB681B6C042B09D1FB681B68D0
:102D2000FA681268126842F400721A60012318E00F
:102D3000032316E0FB681B68FA681268126842F405
:102D400000721A60FB68202283F83D20FB68002295
:102D500083F83E20FB68002283F83C20002300E03B
:102D6000022318461837BD4680BD00BF0200100080
:102D70000000FFFF80B58CB002AFF8600846114636
:102D80001A4603467B810B463B811346FB8000239A
:102D90007B62FEF779FB7862FB6893F83D30DBB22B
:102DA000202B40F022827B6A0093192301228A495A
:102DB000F86800F047FD0346002B01D0022315E21E
:102DC000FB6893F83C30012B01D102230EE2FB6833
:102DD000012283F83C20FB681B681B6803F0010399
:102DE000012B07D0FB681B68FA681268126842F072
:102DF00001021A60FB681B68FA681268126822F404
:102E000000621A60FB68222283F83D20FB684022A2
:102E100083F83E20FB6800221A64FB683A6B5A6212
:102E2000FB68BA8E5A85FB686C4ADA62FB685B8D78
:102E30009AB2FB681A85F8883A8979897B6A019386
:102E4000BB6B00930346F86800F01AFC0346002BA6
:102E50000FD0FB681B6C042B05D1FB68002283F8A4
:102E60003C200123C2E1FB68002283F83C200323BD
:102E7000BCE1FB681B8D002B13D100233B62FB6878
:102E80001B685B693B62FB681B689B693B623B6A32
:102E9000FB681B68FA681268126842F400721A60D4
:102EA00090E1FB681B8D012B1DD1FB681B68FA6844
:102EB0001268126822F480621A6072B60023FB6105
:102EC000FB681B685B69FB61FB681B689B69FB61B6
:102ED000FB69FB681B68FA681268126842F40072AA
:102EE0001A6062B66EE1FB681B8D022B1DD1FB6878
:102EF0001B68FA681268126842F400621A6072B6BF
:102F00000023BB61FB681B685B69BB61FB681B68D6
:102F10009B69BB61BB69FB681B68FA681268126831
:102F200022F480621A6062B64CE1FB681B68FA68A2
:102F30001268126842F480621A6000237B61FB68A9
:102F40001B685B697B61FB681B689B697B617B69B4
:102F500038E1FB681B8D032B00F2EF80FB681B8DB3
:102F6000012B27D17A6AB96BF86800F0A4FD0346FB
:102F7000002B07D0FB681B6C202B01D1032335E10C
:102F8000012333E1FB685B6A591CFA685162FA68F5
:102F900012681269D2B21A70FB681B8D013B9AB29B
:102FA000FB681A85FB685B8D9BB2013B9AB2FB689C
:102FB0005A8507E1FB681B8D022B4CD17B6A00937D
:102FC000BB6B00220649F86800F03CFC0346002B6E
:102FD00008D003230AE100BF020010000000FFFF39
:102FE0000400010072B6FB681B68FA681268126878
:102FF00042F400721A60FB685B6A591CFA685162FD
:10300000FA6812681269D2B21A70FB681B8D013B14
:103010009AB2FB681A85FB685B8D9BB2013B9AB242
:10302000FB685A8562B6FB685B6A591CFA68516294
:10303000FA6812681269D2B21A70FB681B8D013BE4
:103040009AB2FB681A85FB685B8D9BB2013B9AB212
:10305000FB685A85B6E07B6A0093BB6B002265492A
:10306000F86800F0EFFB0346002B01D00323BDE01E
:10307000FB681B68FA681268126822F480621A60A2
:1030800072B6FB685B6A591CFA685162FA6812688A
:103090001269D2B21A70FB681B8D013B9AB2FB68B1
:1030A0001A85FB685B8D9BB2013B9AB2FB685A851F
:1030B0007B6A0093BB6B00224E49F86800F0C2FBAC
:1030C0000346002B01D0032390E0FB681B68FA68DD
:1030D0001268126842F400721A60FB685B6A591C3D
:1030E000FA685162FA6812681269D2B21A70FB6803
:1030F0001B8D013B9AB2FB681A85FB685B8D9BB206
:10310000013B9AB2FB685A8562B6FB685B6A591C40
:10311000FA685162FA6812681269D2B21A70FB68D2
:103120001B8D013B9AB2FB681A85FB685B8D9BB2D5
:10313000013B9AB2FB685A8544E07A6AB96BF86839
:1031400000F0B9FC0346002B07D0FB681B6C202B5A
:1031500001D103234AE0012348E0FB685B6A591C64
:10316000FA685162FA6812681269D2B21A70FB6882
:103170001B8D013B9AB2FB681A85FB685B8D9BB285
:10318000013B9AB2FB685A85FB681B685B6903F0D8
:103190000403042B16D1FB685B6A591CFA68516260
:1031A000FA6812681269D2B21A70FB681B8D013B73
:1031B0009AB2FB681A85FB685B8D9BB2013B9AB2A1
:1031C000FB685A85FB681B8D002B7FF4C2AEFB6841
:1031D000202283F83D20FB68002283F83E20FB6814
:1031E000002283F83C20002300E002231846283701
:1031F000BD4680BD0400010080B58CB002AFF86010
:103200007A603B600B467B8100237B6200233B623C
:103210000023FB610023BB6101237B61FEF734F9CE
:103220007862FB6893F83D30DBB2202B40F00A81D6
:103230007B6A0093192301228549F86800F002FB9C
:103240000346002B01D00223FDE0FB6893F83C30DD
:10325000012B01D10223F6E0FB68012283F83C2018
:10326000FB681B681B6803F00103012B07D0FB6898
:103270001B68FA681268126842F001021A60FB6863
:103280001B68FA681268126822F400621A60FB6810
:10329000242283F83D20FB6800221A64FB686D4AF3
:1032A000DA62FB681B68FA681268126842F480727E
:1032B0001A607B6A00933B6800224FF00111F868A6
:1032C00000F0C0FA0346002B01D00323BBE0FB68EB
:1032D0001B687A89D2B202F0FE021A61FEF7D4F8B6
:1032E0007862FB681B685B6903F00203022B0CBF6A
:1032F00001230023DBB23B62FB681B685B6903F4BC
:103300008063B3F5806F0CBF01230023DBB2FB6148
:10331000FB6893F83D30DBB2BB612AE03B68002BD1
:1033200007D0FEF7B1F802467B6AD21A3B689A4290
:1033300003D9FB68A02283F83D20FB681B685B690A
:1033400003F00203022B0CBF01230023DBB23B621C
:10335000FB681B685B6903F48063B3F5806F0CBF87
:1033600001230023DBB2FB61FB6893F83D30DBB245
:10337000BB613B6A002B05D1FB69002B02D1BB6905
:10338000A02BCBD1FB68202283F83D20FB681B6873
:103390005B6903F00203022B29D1FB681B68FA6802
:1033A0001268126842F400721A6000233B61FB68E5
:1033B0001B685B693B61FB681B689B693B613B6900
:1033C0007B6A0093192301222149F86800F03AFA38
:1033D0000346002B01D0032335E0FB68202283F84D
:1033E0003D20FB68002283F83C2000232BE0FB6893
:1033F0001B68FA681268126842F400721A60FB686F
:103400001B686FF480625A617B6A00931923012262
:103410000F49F86800F016FA0346002B01D0032389
:1034200011E07B695A1C7A617A689342FFF439AFE4
:10343000FB68202283F83D20FB68002283F83C20B3
:10344000012300E0022318462837BD4680BD00BF97
:10345000020010000000FFFF80B588B002AFF860E6
:103460007A603B600B467B81FB68DB6A7B617B6932
:10347000042B06D07B69012B03D07B6913F5803FB9
:1034800008D1FB681B68FA681268126842F48072FF
:103490001A600BE0FB681B6B122B07D1FB681B68E3
:1034A000FA681268126842F480721A603B680093EE
:1034B0007B6800224FF00111F86800F0C3F9034661
:1034C000002B01D0032340E0FB681B69B3F5804F5C
:1034D00007D1FB681B687A89D2B202F0FE021A613A
:1034E00021E0FB681B687A89D211D2B202F0060291
:1034F000D2B262F00F02D2B21A613B687A68154903
:10350000F86800F0F0F90346002B07D0FB681B6C4D
:10351000042B01D1012318E0032316E0FB681B688C
:103520007A89D2B21A613B687A680B49F86800F070
:10353000DAF90346002B07D0FB681B6C042B01D182
:10354000012302E0032300E0002318461837BD469C
:1035500080BD00BF080001000200010080B588B0F6
:1035600002AFF860084611461A4603467B810B46B7
:103570003B811346FB80FB681B68FA68126812687F
:1035800042F480721A607B6A00933B6A00224FF01B
:103590000111F86800F056F90346002B01D003230F
:1035A00068E0FB681B687A89D2B202F0FE021A61F9
:1035B0007B6A3A6A3149F86800F095F90346002BB6
:1035C00007D0FB681B6C042B01D1012352E00323BD
:1035D00050E000237B61FB681B685B697B61FB68D3
:1035E0001B689B697B617B697A6A396AF86800F0BD
:1035F000E8F90346002B0FD0FB681B6C042B09D1A4
:10360000FB681B68FA681268126842F400721A605C
:1036100001232FE003232DE0FB88012B05D1FB685C
:103620001B683A89D2B21A6123E0FB681B683A89A9
:10363000120A92B2D2B21A617A6A396AF86800F054
:10364000C0F90346002B0FD0FB681B6C042B09D17B
:10365000FB681B68FA681268126842F400721A600C
:10366000012307E0032305E0FB681B683A89D2B217
:103670001A61002318461837BD4680BD02000100BC
:1036800080B588B002AFF860084611461A46034676
:103690007B810B463B811346FB80FB681B68FA6805
:1036A0001268126842F480621A60FB681B68FA684C
:1036B0001268126842F480721A607B6A00933B6A57
:1036C00000224FF00111F86800F0BCF80346002B0F
:1036D00001D00323AFE0FB681B687A89D2B202F005
:1036E000FE021A617B6A3A6A5549F86800F0FBF8F5
:1036F0000346002B07D0FB681B6C042B01D1012370
:1037000099E0032397E000237B61FB681B685B69FA
:103710007B61FB681B689B697B617B697A6A396A9C
:10372000F86800F04EF90346002B0FD0FB681B6CC5
:10373000042B09D1FB681B68FA681268126842F40E
:1037400000721A60012376E0032374E0FB88012BEA
:1037500005D1FB681B683A89D2B21A6123E0FB6885
:103760001B683A89120A92B2D2B21A617A6A396A2D
:10377000F86800F026F90346002B0FD0FB681B6C9D
:10378000042B09D1FB681B68FA681268126842F4BE
:1037900000721A6001234EE003234CE0FB681B68B3
:1037A0003A89D2B21A617A6A396AF86800F009F97E
:1037B0000346002B0FD0FB681B6C042B09D1FB6860
:1037C0001B68FA681268126842F400721A600123DA
:1037D00031E003232FE0FB681B68FA681268126867
:1037E00042F480721A607B6A00933B6A00224FF0B9
:1037F0000111F86800F026F80346002B01D00323DE
:1038000019E0FB681B687A89D2B242F00102D2B299
:103810001A617B6A3A6A0A49F86800F064F803465C
:10382000002B07D0FB681B6C042B01D1012302E0A5
:10383000032300E0002318461837BD4680BD00BFB3
:103840000200010080B584B000AFF860B9603B6051
:103850001346FB711FE03B68B3F1FF3F1BD03B6891
:10386000002B07D0FDF710FE0246BB69D21A3B6859
:103870009A4210D9FB6800221A63FB68202283F861
:103880003D20FB68002283F83E20FB68002283F87D
:103890003C20032323E0BB681B0CDBB2012B0DD1C2
:1038A000FB681B685B69DA43BB6813409BB2002B63
:1038B0000CBF01230023DBB21A460CE0FB681B6837
:1038C0009B69DA43BB6813409BB2002B0CBF0123FA
:1038D0000023DBB21A46FB799A42BCD0002318467B
:1038E0001037BD4680BD80B584B000AFF860B960C8
:1038F0007A603B6040E0FB681B685B6903F48063AF
:10390000B3F5806F1CD1FB681B68FA6812681268F7
:1039100042F400721A60FB681B686FF480625A619F
:10392000FB6804221A64FB6800221A63FB682022E9
:1039300083F83D20FB68002283F83C2001233CE013
:103940007B68B3F1FF3F17D07B68002B07D0FDF7F2
:103950009BFD02463B68D21A7B689A420CD9FB68F1
:1039600000221A63FB68202283F83D20FB680022B6
:1039700083F83C20032320E0BB681B0CDBB2012B47
:103980000CD1FB681B685B69DA43BB6813409BB2D0
:10399000002B14BF01230023DBB20BE0FB681B6884
:1039A0009B69DA43BB6813409BB2002B14BF012311
:1039B0000023DBB2002B9ED1002318461037BD46F2
:1039C00080BD80B584B000AFF860B9607A6029E04E
:1039D000F86800F0BAF80346002B01D0012329E073
:1039E000BB68B3F1FF3F1DD0BB68002B07D0FDF7CC
:1039F0004BFD02467B68D21ABB689A4212D9FB681B
:103A00001B6C43F02002FB681A64FB6800221A63F7
:103A1000FB68202283F83D20FB68002283F83C20CD
:103A2000032307E0FB681B685B6903F08003802BBE
:103A3000CED1002318461037BD4680BD80B584B076
:103A400000AFF860B9607A6029E0F86800F07DF8AE
:103A50000346002B01D0012329E0BB68B3F1FF3FEF
:103A60001DD0BB68002B07D0FDF70EFD02467B681A
:103A7000D21ABB689A4212D9FB681B6C43F0200231
:103A8000FB681A64FB6800221A63FB68202283F833
:103A90003D20FB68002283F83C20032307E0FB68FD
:103AA0001B685B6903F00403042BCED10023184686
:103AB0001037BD4680BD80B584B000AFF860B960F6
:103AC0007A6036E0FB681B685B6903F01003102B1B
:103AD00014D1FB681B686FF010025A61FB6800226A
:103AE0001A64FB6800221A63FB68202283F83D20D9
:103AF000FB68002283F83C20012322E0BB68002BF6
:103B000007D0FDF7C1FC02467B68D21ABB689A4217
:103B10000FD9FB681B6C43F02002FB681A64FB683A
:103B2000202283F83D20FB68002283F83C200323F9
:103B300007E0FB681B685B6903F04003402BC1D1C1
:103B4000002318461037BD4680BD80B483B000AF57
:103B500078607B681B685B6903F48063B3F5806FF2
:103B600014D17B681B686FF480625A617B68042201
:103B70001A647B6800221A637B68202283F83D2048
:103B80007B68002283F83C20012300E000231846D4
:103B90000C37BD4680BC704780B586B000AF7860FA
:103BA00000233B617B681B6803F00103002B00F0DE
:103BB0008780924B5B6803F00C03042B0CD08F4B77
:103BC0005B6803F00C03082B12D18C4B5B6803F489
:103BD0008033B3F5803F0BD1884B1B6803F400336F
:103BE000002B6CD07B685B68002B68D101232DE231
:103BF0007B685B68B3F5803F06D1804A7F4B1B68CA
:103C000043F4803313602EE07B685B68002B0CD19B
:103C10007A4A7A4B1B6823F480331360774A774BD8
:103C20001B6823F4802313601DE07B685B68B3F599
:103C3000A02F0CD1714A714B1B6843F48023136091
:103C40006E4A6E4B1B6843F4803313600BE06B4A83
:103C50006A4B1B6823F480331360684A674B1B6808
:103C600023F4802313607B685B68002B13D0FDF77F
:103C70000BFC386108E0FDF707FC02463B69D31AEC
:103C8000642B01D90323E1E15C4B1B6803F400338F
:103C9000002BF0D014E0FDF7F7FB386108E0FDF7EA
:103CA000F3FB02463B69D31A642B01D90323CDE110
:103CB000524B1B6803F40033002BF0D100E000BF2F
:103CC0007B681B6803F00203002B63D04B4B5B68DF
:103CD00003F00C03002B0BD0484B5B6803F00C0384
:103CE000082B1CD1454B5B6803F48033002B16D1A5
:103CF000424B1B6803F00203002B05D07B681B6955
:103D0000012B01D00123A1E13C493C4B1B6823F06E
:103D1000F8027B685B69DB0013430B603AE07B6869
:103D20001B69002B20D0364B01221A60FDF7ACFB3B
:103D3000386108E0FDF7A8FB02463B69D31A022B65
:103D400001D9032382E12D4B1B6803F00203002BF2
:103D5000F0D02A49294B1B6823F0F8027B685B6985
:103D6000DB0013430B6015E0254B00221A60FDF7C2
:103D70008BFB386108E0FDF787FB02463B69D31AED
:103D8000022B01D9032361E11C4B1B6803F00203E2
:103D9000002BF0D17B681B6803F00803002B39D09F
:103DA0007B689B69002B19D0164B01221A60FDF726
:103DB0006BFB386108E0FDF767FB02463B69D31AED
:103DC000022B01D9032341E10C4B5B6A03F0020390
:103DD000002BF0D0012000F0E3FA1BE0094B002299
:103DE0001A60FDF751FB38610EE0FDF74DFB02460E
:103DF0003B69D31A022B07D9032327E100100240A5
:103E00000000424280044242924B5B6A03F002038C
:103E1000002BEAD17B681B6803F00403002B00F041
:103E2000A6800023FB758B4BDB6903F08053002BCE
:103E30000DD1884A874BDB6943F08053D361854BB2
:103E4000DB6903F08053FB60FB680123FB75824B49
:103E50001B6803F48073002B18D17F4A7E4B1B68CC
:103E600043F480731360FDF70FFB386108E0FDF742
:103E70000BFB02463B69D31A642B01D90323E5E00F
:103E8000754B1B6803F48073002BF0D07B68DB68F4
:103E9000012B06D16F4A6F4B1B6A43F0010313627B
:103EA0002DE07B68DB68002B0CD16A4A694B1B6AEA
:103EB00023F001031362674A664B1B6A23F0040375
:103EC00013621CE07B68DB68052B0CD1614A614BF7
:103ED0001B6A43F0040313625E4A5E4B1B6A43F0A5
:103EE000010313620BE05B4A5A4B1B6A23F0010388
:103EF0001362584A574B1B6A23F0040313627B6812
:103F0000DB68002B15D0FDF7BFFA38610AE0FDF73A
:103F1000BBFA02463B69D31A41F28832934201D977
:103F2000032393E04B4B1B6A03F00203002BEED0FC
:103F300014E0FDF7A9FA38610AE0FDF7A5FA024698
:103F40003B69D31A41F28832934201D903237DE0C1
:103F5000404B1B6A03F00203002BEED1FB7D012BCB
:103F600005D13C4A3B4BDB6923F08053D3617B682E
:103F7000DB69002B69D0374B5B6803F00C03082B1F
:103F800061D07B68DB69022B46D1344B00221A607A
:103F9000FDF77AFA386108E0FDF776FA02463B69E8
:103FA000D31A022B01D9032350E02A4B1B6803F0DC
:103FB0000073002BF0D17B681B6AB3F5803F08D1FA
:103FC0002449244B5B6823F400327B689B681343CD
:103FD0004B6020481F4B5B6823F474127B68196A9E
:103FE0007B685B6A0B43134343601C4B01221A60DE
:103FF000FDF74AFA386108E0FDF746FA02463B69E8
:10400000D31A022B01D9032320E0124B1B6803F0C3
:104010000073002BF0D018E0104B00221A60FDF75F
:1040200033FA386108E0FDF72FFA02463B69D31AEC
:10403000022B01D9032309E0064B1B6803F0007330
:10404000002BF0D101E0012300E0002318461837CF
:10405000BD4680BD0010024000700040600042423A
:1040600080B584B000AF786039600023FB607E4B80
:104070001B6803F007023B689A4210D27A497A4BD8
:104080001B6823F007023B6813430B60764B1B68E9
:1040900003F007023B689A4201D00123E0E07B680D
:1040A0001B6803F00203002B20D07B681B6803F021
:1040B0000403002B05D06D4A6C4B5B6843F4E0634E
:1040C00053607B681B6803F00803002B05D0674A28
:1040D000664B5B6843F4605353606449634B5B68B1
:1040E00023F0F0027B689B6813434B607B681B687E
:1040F00003F00103002B6AD07B685B68012B07D1BA
:104100005A4B1B6803F40033002B15D10123A7E0A1
:104110007B685B68022B07D1544B1B6803F000736C
:10412000002B09D101239BE0504B1B6803F00203D5
:10413000002B01D1012393E04C494C4B5B6823F0E9
:1041400003027B685B6813434B60FDF79DF9F860E1
:104150007B685B68012B12D10AE0FDF795F90246F6
:10416000FB68D31A41F28832934201D9032377E0E6
:104170003E4B5B6803F00C03042BEED127E07B6819
:104180005B68022B1DD10AE0FDF77EF90246FB6851
:10419000D31A41F28832934201D9032360E0334BB2
:1041A0005B6803F00C03082BEED110E0FDF76CF90F
:1041B0000246FB68D31A41F28832934201D90323A5
:1041C0004EE02A4B5B6803F00C03002BEED1264B2C
:1041D0001B6803F007023B689A4210D92249224B20
:1041E0001B6823F007023B6813430B601E4B1B68E0
:1041F00003F007023B689A4201D0012330E07B685C
:104200001B6803F00403002B08D01849174B5B68A8
:1042100023F4E0627B68DB6813434B607B681B68B8
:1042200003F00803002B09D01049104B5B6823F4FE
:1042300060527B681B69DB0013434B6000F01CF885
:1042400001460A4B5B681B0903F00F03084AD35C65
:1042500021FA03F3074A13600020FDF7D3F8002387
:1042600018461037BD4680BD0020024000100240B5
:10427000C89500081400002090B48AB000AF2A4B03
:104280003C1D0FCB84E80F00284B1B883B8000238C
:10429000FB610023BB6100237B6200237B61002361
:1042A0003B62234B5B68FB61FB6903F00C03042B4F
:1042B00002D0082B03D02DE01E4B3B622DE0FB69A2
:1042C0009B0C03F00F0307F12802134413F8243C5E
:1042D0007B61FB6903F48033002B13D0144B5B68C4
:1042E0005B0C03F0010307F12802134413F8283C88
:1042F000BB617B690F4A02FB03F2BB69B2FBF3F3BC
:104300007B6204E07B690C4A02FB03F37B627B6AFD
:104310003B6202E0074B3B6200BF3B6A184628370E
:10432000BD4690BC704700BF488B0008588B000802
:104330000010024000127A0000093D0080B400AF76
:10434000024B1B681846BD4680BC70471400002015
:1043500080B500AFFFF7F2FF0146054B5B681B0A13
:1043600003F00703034AD35C21FA03F3184680BD28
:1043700000100240D895000880B500AFFFF7DEFFBF
:104380000146054B5B68DB0A03F00703034AD35C75
:1043900021FA03F3184680BD00100240D8950008AA
:1043A00080B485B000AF78600A4B1B680A4AA2FB54
:1043B00003235B0A7A6802FB03F3FB6000BFFB6820
:1043C0005A1EFA60002BF9D100BF1437BD4680BCDD
:1043D000704700BF14000020D34D621080B586B036
:1043E00000AF786000233B610023FB607B681B68A3
:1043F00003F00103002B7DD00023FB754F4BDB69DD
:1044000003F08053002B0DD14C4A4C4BDB6943F039
:104410008053D361494BDB6903F08053BB60BB68B9
:104420000123FB75464B1B6803F48073002B18D1E6
:10443000434A434B1B6843F480731360FDF724F831
:10444000386108E0FDF720F802463B69D31A642B77
:1044500001D903236DE03A4B1B6803F48073002BF2
:10446000F0D0364B1B6A03F44073FB60FB68002BF3
:104470002ED07B685B6803F44072FB689A4227D0B9
:104480002E4B1B6A23F44073FB602E4B01221A60F3
:104490002C4B00221A60294AFB681362FB6803F068
:1044A0000103002B14D0FCF7EFFF38610AE0FCF7A2
:1044B000EBFF02463B69D31A41F28832934201D99D
:1044C000032336E01D4B1B6A03F00203002BEED0E2
:1044D0001A491A4B1B6A23F440727B685B681343CA
:1044E0000B62FB7D012B05D1144A144BDB6923F0D1
:1044F0008053D3617B681B6803F00203002B08D054
:104500000E490E4B5B6823F440427B689B68134363
:104510004B607B681B6803F01003002B08D0074931
:10452000064B5B6823F480027B68DB6813434B60B7
:10453000002318461837BD4680BD00BF001002405A
:10454000007000404004424290B58DB000AF7860EA
:10455000574B07F10C040FCB84E80F00554B1B8819
:104560003B8100237B620023FB6200233B6200232C
:10457000FB610023BB627B68022B00F08480102B60
:1045800002D0012B49D08DE04B4B5B68FB614A4B5D
:104590001B6803F08073002B00F08380FB699B0C89
:1045A00003F00F0307F13002134413F8243C3B627D
:1045B000FB6903F48033002B18D03F4B5B685B0C26
:1045C00003F0010307F13002134413F8283C7B6227
:1045D000FB6903F48033002B0DD0384A7B6AB2FBB1
:1045E000F3F33A6A02FB03F3FB6204E03B6A344AEA
:1045F00002FB03F3FB62304B5B6803F48003B3F50B
:10460000800F02D1FB6ABB624BE0FB6A5B002D4A64
:10461000A2FB03235B08BB6243E0274B1B6AFB61E1
:10462000FB6903F44073B3F5807F08D1FB6903F0A5
:104630000203002B03D04FF40043BB6222E0FB696E
:1046400003F44073B3F5007F09D11B4B5B6A03F0A1
:104650000203002B03D049F64043BB6212E0FB6922
:1046600003F44073B3F5407F09D1134B1B6803F487
:104670000033002B03D04FF22443BB6202E000233F
:10468000BB620FE00EE0FFF777FE02460A4B5B6865
:104690009B0B03F0030301335B00B2FBF3F3BB623C
:1046A00000E000BFBB6A18463437BD4690BD00BF6E
:1046B0005C8B00086C8B00080010024000127A002E
:1046C00000093D00ABAAAAAA80B582B000AF78600D
:1046D0007B68002B01D101231DE07B6893F83D30FE
:1046E000DBB2002B06D17B68002283F83C2078687F
:1046F00002F010F87B68022283F83D207B681A687C
:104700007B6804331946104600F034FA7B680122B6
:1047100083F83D20002318460837BD4680BD80B48D
:1047200083B000AF78607B681B687A681268D268D3
:1047300042F00102DA607B681B687A6812681268CE
:1047400042F001021A60002318460C37BD4680BCB7
:10475000704780B582B000AF78607B681B681B69CA
:1047600003F00203022B22D17B681B68DB6803F095
:104770000203022B1BD17B681B686FF002021A61D7
:104780007B6801221A777B681B689B6903F003032F
:10479000002B03D0786800F0D1F905E0786800F0CC
:1047A000C4F9786800F0D3F97B6800221A777B6837
:1047B0001B681B6903F00403042B22D17B681B6870
:1047C000DB6803F00403042B1BD17B681B686FF0CC
:1047D00004021A617B6802221A777B681B689B6956
:1047E00003F44073002B03D0786800F0A7F905E0CC
:1047F000786800F09AF9786800F0A9F97B680022DF
:104800001A777B681B681B6903F00803082B22D109
:104810007B681B68DB6803F00803082B1BD17B68EF
:104820001B686FF008021A617B6804221A777B68A4
:104830001B68DB6903F00303002B03D0786800F0EA
:104840007DF905E0786800F070F9786800F07FF98C
:104850007B6800221A777B681B681B6903F01003D2
:10486000102B22D17B681B68DB6803F01003102B30
:104870001BD17B681B686FF010021A617B680822ED
:104880001A777B681B68DB6903F44073002B03D045
:10489000786800F053F905E0786800F046F9786828
:1048A00000F055F97B6800221A777B681B681B694A
:1048B00003F00103012B0ED17B681B68DB6803F05A
:1048C0000103012B07D17B681B686FF001021A619D
:1048D000786800F021F97B681B681B6903F080038E
:1048E000802B0ED17B681B68DB6803F08003802B74
:1048F00007D17B681B686FF080021A61786800F04E
:1049000091FA7B681B681B6903F04003402B0ED1B2
:104910007B681B68DB6803F04003402B07D17B6892
:104920001B686FF040021A61786800F019F97B6823
:104930001B681B6903F02003202B0ED17B681B68CA
:10494000DB6803F02003202B07D17B681B686FF026
:1049500020021A61786800F05CFA00BF0837BD4693
:1049600080BD80B584B000AF786039600023FB6003
:104970007B6893F83C30012B01D10223C8E07B68AF
:10498000012283F83C207B68022283F83D207B686B
:104990001B689B68FB60FB6823F07703FB60FB6888
:1049A00023F47F43FB607B681B68FA689A603B686E
:1049B0001B68402B77D0402B0ED8102B00F08A803C
:1049C000102B02D8002B7ED099E0202B00F089809C
:1049D000302B00F08D8092E0702B16D0702B04D815
:1049E000502B40D0602B4ED089E0B3F5805F03D0D0
:1049F000B3F5005F24D082E07B681B687A68126898
:104A0000926822F007029A6079E07B6818683B6838
:104A100099683B685A683B68DB6800F095F97B68E9
:104A20001B689B68FB60FB6823F07703FB60FB68F7
:104A300043F07703FB607B681B68FA689A605EE06E
:104A40007B6818683B6899683B685A683B68DB6814
:104A500000F07AF97B681B687A681268926842F401
:104A600080429A604BE07B6818683B6859683B68F5
:104A7000DB681A4600F0E4F87B681B685021184692
:104A800000F043F93BE07B6818683B6859683B6875
:104A9000DB681A4600F006F97B681B68602118463F
:104AA00000F033F92BE07B6818683B6859683B6875
:104AB000DB681A4600F0C4F87B681B684021184682
:104AC00000F023F91BE07B681B680021184600F00A
:104AD0001CF914E07B681B681021184600F015F9DA
:104AE0000DE07B681B682021184600F00EF906E0F7
:104AF0007B681B683021184600F007F900BF7B680F
:104B0000012283F83D207B68002283F83C200023AB
:104B100018461037BD4680BD80B483B000AF7860C2
:104B200000BF0C37BD4680BC704780B483B000AF77
:104B3000786000BF0C37BD4680BC704780B483B03E
:104B400000AF786000BF0C37BD4680BC704780B4B2
:104B500083B000AF786000BF0C37BD4680BC7047A3
:104B600080B483B000AF786000BF0C37BD4680BC16
:104B70007047000080B485B000AF786039600023D2
:104B8000FB607B681B68FB607B682A4A93420BD002
:104B90007B68B3F1804F07D07B68274A934203D0EC
:104BA0007B68264A934208D1FB6823F07003FB60C0
:104BB0003B685B68FA681343FB607B681D4A93425D
:104BC0000BD07B68B3F1804F07D07B681A4A9342C1
:104BD00003D07B68194A934208D1FB6823F44073E1
:104BE000FB603B68DB68FA681343FB60FB6823F0FB
:104BF0008003FB603B685B69FA681343FB607B687A
:104C0000FA681A603B689A687B68DA623B681A68DF
:104C10007B689A627B68074A934203D13B681A69B2
:104C20007B681A637B6801225A6100BF1437BD4656
:104C300080BC7047002C0140000400400008004088
:104C400080B487B000AFF860B9607A6000237B6100
:104C500000233B61FB681B6A3B61FB681B6A23F016
:104C60000102FB681A62FB689B697B617B6923F028
:104C7000F0037B617B681B017A6913437B613B69AD
:104C800023F00A033B613A69BB6813433B61FB684D
:104C90007A699A61FB683A691A6200BF1C37BD469F
:104CA00080BC704780B487B000AFF860B9607A60AC
:104CB00000237B6100233B61FB681B6A23F0100229
:104CC000FB681A62FB689B697B61FB681B6A3B613E
:104CD0007B6923F470437B617B681B037A69134310
:104CE0007B613B6923F0A0033B61BB681B013A6910
:104CF00013433B61FB687A699A61FB683A691A62FF
:104D000000BF1C37BD4680BC704780B485B000AF83
:104D100078600B467B800023FB607B689B68FB60B0
:104D2000FB6823F07003FB607B8843F007039BB2B2
:104D30001A46FB681343FB607B68FA689A6000BF01
:104D40001437BD4680BC704780B487B000AFF860B0
:104D5000B9607A603B6000237B61FB689B687B6184
:104D60007B6923F47F437B613B681A027B681A43AB
:104D7000BB6813437A6913437B61FB687A699A6065
:104D800000BF1C37BD4680BC704780B483B000AF05
:104D9000786039607B6893F83C30012B01D10223A5
:104DA00032E07B68012283F83C207B68022283F892
:104DB0003D207B681B687A681268526822F0700296
:104DC0005A607B681B687A68126851683A68126892
:104DD0000A435A607B681B687A681268926822F0FE
:104DE00080029A607B681B687A68126891683A68EA
:104DF00052680A439A607B68012283F83D207B68F1
:104E0000002283F83C20002318460C37BD4680BCA6
:104E1000704780B483B000AF786000BF0C37BD46E8
:104E200080BC704780B483B000AF786000BF0C379F
:104E3000BD4680BC7047000080B588B004AF034613
:104E4000FB710023FB73FB799AB24FF4803302931A
:104E50000123019307F10F0300930123EC2106487E
:104E6000FDF788FF03461A46044B1A70FB7B184671
:104E70001037BD4680BD00BF1C0500203006002055
:104E800080B586B004AF03463A60FB800B467B7169
:104E90007B799AB2F9884FF480330293022301930D
:104EA0003B68009301230548FDF764FF03461A465B
:104EB000034B1A7000BF0837BD4680BD1C0500209B
:104EC0003006002080B586B004AF03463A60FB8010
:104ED0000B467B717B799AB2F9884FF48033029349
:104EE000032301933B68009301230548FDF742FF2C
:104EF00003461A46034B1A7000BF0837BD4680BDF3
:104F00001C0500203006002080B586B004AF4FF4A9
:104F10008033029301230193FB1D00930123F322AD
:104F2000EC210948FDF726FF03461A46074B1A7085
:104F3000FB7903F00903002B01D0012300E00023DB
:104F400018460837BD4680BD1C05002030060020ED
:104F500080B582B000AF03463960FB71FB793A68D7
:104F60001946EC20FFF78CFF00BF0837BD4680BD17
:104F700080B582B000AF03463960FB71FB793A68B7
:104F80001946EC20FFF77CFF00BF0837BD4680BD07
:104F900080B582B000AF03463960FB71FB793A6897
:104FA0001946EC20FFF76CFF3B681B881B0A9BB27D
:104FB0001AB23B681B881B021BB213431BB29AB286
:104FC0003B681A8000BF0837BD4680BD80B582B0FF
:104FD00000AF03463960FB71FB793A681946EC2053
:104FE000FFF770FF3B681B681B0CDAB23B681B685D
:104FF00003F47F431A433B681B681B0403F47F03DD
:10500000134323F07F423B681A6000BF0837BD4658
:1050100080BD000090B587B004AF45498820FFF7F8
:1050200097FF44498A20FFF7A3FF43498C20FFF7ED
:105030009FFF42498E20FFF78BFF41499020FFF7E9
:1050400097FF40499220FFF793FF3F499420FFF7D5
:105050008FFF3E499620FFF78BFF3D499820FFF7D1
:1050600087FF3C499A20FFF783FF3B499C20FFF7CD
:105070007FFF3A499E20FFF77BFF4FF48033029376
:1050800001230193FB1D00930123A122EC2134484D
:10509000FDF770FE03461A46324B1A70FA79244B1C
:1050A0001A763149E120FFF763FF4FF48033029312
:1050B00001230193FB1D00930123E322EC212848E7
:1050C000FDF758FE03461A46264B1A70FA79184B1C
:1050D0001A77E420FFF7B0FE03461B011CB2E5205F
:1050E000FFF7AAFE03461BB203F00F031BB22343D4
:1050F0001AB20F4BDA83E620FFF79EFE03461B0130
:105100001CB2E520FFF798FE03461B09DBB21BB279
:1051100023431AB2064B1A84E720FFF78DFE03469D
:105120005AB2034B83F8222000BF0C37BD4690BD16
:10513000C0040020C2040020C4040020C6040020D3
:10514000C8040020CA040020CC040020CE040020A3
:10515000D0040020D2040020D4040020D604002073
:105160001C05002030060020DA04002080B586B03F
:1051700004AF00233B71B6233B714FF4803302939D
:10518000012301933B1D00930123E022EC213B48C6
:10519000FDF7E6FC03461A46394B1A7000BFFFF7CD
:1051A000B3FE034603F00103002BF8D1FFF732FFF3
:1051B0004FF48033029301230193FB1C00930123DE
:1051C000F522EC212D48FDF7D5FD03461A462C4B60
:1051D0001A70FB7863F05703DBB23B714FF48033F6
:1051E0000293012301933B1D00930123F522EC213F
:1051F0002248FDF7B5FC03461A46214B1A704FF4BE
:105200008033029301230193FB1C00930123F222BC
:10521000EC211A48FDF7AEFD03461A46184B1A70EA
:10522000FB7843F00103DBB23B714FF48033029310
:10523000012301933B1D00930123F222EC210F482F
:10524000FDF78EFC03461A460D4B1A7027233B715F
:105250004FF480330293012301933B1D00930123FC
:10526000F422EC210548FDF77BFC03461A46044B6B
:105270001A7000BF0837BD4680BD00BF1C05002066
:105280003006002080B584B000AF4FF00003FB6013
:105290003B461946FA20FFF799FE3B681B093B6025
:1052A0003B68DB081D4A128852009B1A1B4AB2F960
:1052B000022002FB03F3DB0ABB603B681B09174AB1
:1052C00012889B1A3A68120914490988521A02FB7B
:1052D00003F31B0B114AB2F9042002FB03F39B0BEF
:1052E0007B60BA687B6813440D4A13600C4B1A68E4
:1052F00013469B00134480331B121846FBF7E2FC55
:105300000346FB600749F868FBF7E4FD0346FB60D2
:10531000FB6818461037BD4680BD00BFC0040020A2
:10532000E80400200000C8422DE9B04FA6B000AF4D
:105330004FF00003C7F89430FFF7A4FF07F17003A4
:105340001946F720FFF742FE3B6F1B093B676D4B89
:105350001B684FEAE374B3F5FA3344F1FF34C7E94D
:105360002234D7F88C20D7F8883003FB02F1D7F825
:105370008C20D7F8883003FB02F3CC18D7F88820AC
:10538000D7F88830A2FB0301631819465E4BB3F9C6
:1053900010301BB24FEAE37403FB01F500FB04F28B
:1053A0002A44A0FB033422441446C7E92034C7E949
:1053B0002034554BB3F90E301BB24FEAE374D7F8E3
:1053C000882004FB02F1D7F88C2003FB02F2114481
:1053D000D7F88820A2FB03340A1914464FEA44493F
:1053E00049EAD3394FEA4348D7E9203413EB08039D
:1053F00044EB0904C7E92034434BB3F90C301BB22A
:105400004FEAE374DB00FB600023BB60D7E9203484
:10541000D7E90212C91842EB04020B461446C7E949
:105420002034D7F88C20D7F8883003FB02F1D7F866
:105430008C20D7F8883003FB02F3CC18D7F88820EB
:10544000D7F88830A2FB0301631819462E4BB3F935
:105450000A301BB24FEAE37403FB01F500FB04F2D0
:105460002A44A0FB0334224414461A0ABA66BA6ED0
:1054700042EA0462BA662312FB66234BB3F9083092
:105480001BB24FEAE374D7F8882004FB02F1D7F887
:105490008C2003FB02F21144D7F88820A2FB0334CE
:1054A0000A1914464FEA043B4BEA135B4FEA033AEE
:1054B000D7E91A3413EB0A0344EB0B04C7E922348F
:1054C000D7E92234191C44F500420F4BDB889BB20C
:1054D0004FF0000403FB02F501FB04F02844A1FB9C
:1054E00003340219144662103A60E3177B6097E8B0
:1054F0001800C7E92234D7E92234234306D14FF0FC
:1055000000031EE1E8040020C00400203B6FC3F547
:1055100080134FF00004C7E91E34D7E91E34E207B8
:105520007A667A6E42EA53027A66DB073B66D7E90F
:105530002034D7E91812C91A62EB04020B4614464C
:10554000DB1844EB04045B1844EB0204A00178630D
:10555000786B40EA9360786398013863D7E90C89E7
:1055600018EB030849EB040943464C46A000F862D7
:10557000F86A40EA9370F8629B00BB62D7E90A348C
:105580005B1844EB0204A0007862786A40EA9370EA
:1055900078629B003B62D7E9083413EB010844EBC7
:1055A000020940464946D7E92223FBF755FD034649
:1055B0000C46C7E91E34654BB3F9163019B24FEAF1
:1055C000E172D7E91E34580BB865B86D40EAC440A3
:1055D000B8656313FB65D7E91645234603FB02F064
:1055E0002B4601FB03F303442046A1FB00010B44BF
:1055F0001946D7E91E345A0B3A653A6D42EAC4425D
:105600003A6563137B65D7E91445234603FB01F232
:105610002B4600FB03F31A442346A0FB0334224429
:1056200014465A0EBA61BA6942EAC412BA616316E4
:10563000FB61D7E90634C7E92234444BB3F914308F
:105640001BB24FEAE374BA6F04FB02F1FA6F03FB7B
:1056500002F20A44B96FA1FB033422441446DA0C67
:105660003A613A6942EA44323A61E3147B61D7E92C
:105670000434C7E92034D7E91E12D7E92234C91807
:1056800042EB0402D7E920345B1844EB02041A0A07
:10569000BA64BA6C42EA0462BA642312FB642B4B0C
:1056A000B3F912301BB24FEAE37422017A647A6CC8
:1056B00042EA13727A641B013B64D7E91234D7E9DA
:1056C00010125B1844EB0204C7E91E34D7E91E34FC
:1056D0001A0ABA63BA6B42EA0462BA632312FB6322
:1056E000BA6B4FF47A7303FB02F5D7E91E344FF01F
:1056F000FF014FF0000203EA010304EA0204144A26
:1057000002FB04F1002202FB03F20A441049A3FB4E
:105710000101531819460F4A4FF00003FBF79CFC98
:1057200003460C462B447B67786FFBF7C7FA0346AA
:1057300009491846FBF7CEFB0346C7F89430D7F863
:10574000943018469837BD46BDE8B08FC00400209D
:10575000E1F50500A08601000000C84280B584B0D4
:1057600000AF4FF00003FB60FFF78CFDBB1C194638
:10577000FD20FFF70DFCB7F902309BB2BB60324B46
:105780001B68A3F596337B60BB689A032F4BB3F974
:105790001E301B05D21A2D4BB3F9203019467B68F9
:1057A00003FB01F3D31A03F58043DB13274A92F975
:1057B000222011467A6802FB01F292122349097FE6
:1057C0000846796801FB00F1C91201F5004101FBAF
:1057D00002F2921202F500121C49B1F91A1001FBF3
:1057E00002F202F50052921302FB03F37B607B6826
:1057F000DB137A68D21302FB03F3DB11134A127E28
:1058000002FB03F31B117A68D31A7B607B6823EADF
:10581000E3737B607B68B3F1C85FA8BF4FF0C853E8
:105820007B607B681B131846FBF74CFA0346FB6052
:105830004FF08941F868FBF74DFB0346FB60FB68BE
:1058400018461037BD4680BDE8040020C004002083
:1058500090B585B000AF78604FF00003FB60FFF7B4
:1058600063FDB8607968B868FBF734FB03461846F7
:10587000FAF7D2FD12A3D3E9002301F069FD034634
:105880000C461A4623464FF000001149FAF764FC13
:1058900003460C46184621460BA3D3E90023FAF72A
:1058A0000FFE03460C4618462146FBF701F9034656
:1058B000FB60FB6818461437BD4690BDAFF300800F
:1058C000EBE2361AC05BC83F0000000040A5E5408F
:1058D0000000F03F80B58CB000AF07F12403002238
:1058E0001A605A609A603B1D20220021184600F081
:1058F0007FFF274B274A1A60254B00229A60244BD2
:105900000022DA60224B00225A61214B4FF46022C0
:10591000DA611F4B00225A601D4B01221A611C489C
:10592000FBF7DEFD0346002B01D000F097FB0523BB
:105930007B620123BB620023FB6207F1240319464B
:105940001348FBF77BFF0346002B01D000F086FBDA
:1059500005237B600123BB6001237B610023FB6087
:105960004FF4E0433B620023FB610023BB61002353
:105970003B613B1D19460648FCF7CCFA0346002B59
:1059800001D000F06BFB00BF3037BD4680BD00BFCB
:10599000EC0400200024014080B588B000AF78609E
:1059A00007F1100300221A605A609A60DA607B687F
:1059B0001B68184A934229D1174A174B9B6943F435
:1059C00000739361144B9B6903F40073FB60FB68E5
:1059D000114A114B9B6943F0040393610E4B9B6981
:1059E00003F00403BB60BB6820233B6103237B619E
:1059F00007F1100319460948FCF72AFD002200218F
:105A00001220FCF7EEFC1220FCF707FD00BF203748
:105A1000BD4680BD00240140001002400008014046
:105A200080B485B000AF144A134B9B6943F0200348
:105A30009361114B9B6903F02003FB60FB680E4AE6
:105A40000D4B9B6943F0040393610B4B9B6903F07F
:105A50000403BB60BB68084A074B9B6943F008031B
:105A60009361054B9B6903F008037B607B6800BF73
:105A70001437BD4680BC70470010024080B500AFAF
:105A8000124B134A1A60114B124A5A600F4B0022F4
:105A90009A600E4B0022DA600C4B4FF480421A6180
:105AA0000A4B00225A61094B00229A61074B0022DF
:105AB000DA61064B00221A620448FCF73FFE0346F7
:105AC000002B01D000F0CAFA00BF80BD1C050020E9
:105AD00000540040A086010080B500AF124B134A6D
